:020000040800F2
:10000000A0060020D900000875110008131100088F
:1000100000000000000000000000000000000000E0
:10002000000000000000000000000000791100083E
:100030000000000000000000771100087B1100089C
:10004000EB000008EB000008EB000008EB000008E4
:10005000EB000008EB000008EB000008EB000008D4
:10006000EB000008EB000008EB000008EB000008C4
:10007000EB000008EB000008EB000008EB000008B4
:10008000EB000008EB000008EB000008EB000008A4
:10009000EB000008EB000008EB000008EB00000894
:1000A000EB000008EB000008EB0000085518000802
:1000B000EB000008EB000008EB000008EB00000874
:1000C0000448854600F090F800480047F9180008F9
:1000D000C046C046A00600200448804704480047A8
:1000E000FEE7FEE7FEE7FEE7FEE7FEE7F3110008A6
:1000F000C100000830B50B46014600202022012433
:1001000009E00D46D5409D4205D31D469540491B4B
:100110002546954040191546521E002DF1DC30BD94
:10012000F0B51FB40646002082B005464024019178
:1001300000901BE0019922460F46304600F020F85F
:10014000049A059B801A994110D3104619462246FD
:1001500000F039F8361A8F4101972246012000211C
:10016000009F00F030F838184D4100902046641E82
:100170000028DFDC019B00982946324607B0F0BD1D
:1001800010B5202A04DB0846203AD040002110BDDB
:100190000B46D340D0402024A21A91400843194670
:1001A00010BDD2B201E00270401C491EFBD2704764
:1001B0000022F6E710B513460A4604461946FFF733
:1001C000F0FF204610BD10B5202A04DB0146203A7E
:1001D0009140002010BD914020239C1A0346E3402B
:1001E0001943904010BD0000064C0125064E05E065
:1001F000E36807CC2B430C3C98471034B442F7D348
:10020000FFF762FF90190008B019000872B6FEE708
:1002100030B5014620314B780022022B04D0042354
:1002200083630A70012030BD03681C680E25AC434F
:100230001C6003681C68640864001C600123056C72
:100240001C46C06BAC4044604B700A70002030BD4F
:1002500070B50024014620314A78022A03D00421D7
:100260008163012416E0026813680E25AB43136016
:10027000026813685B085B0013600122056C13467B
:10028000AB40C56B6B604A7000220A70416B00295D
:1002900000D08847204670BDF8B50023032401250F
:1002A000BFE02E469E40B44632407CD00E79B60761
:1002B000B60F012E01D0022E17D186682746B6460A
:1002C0005E00B74000967646BE43B646CF68009EB5
:1002D000B74076463743876046686746BE430F7926
:1002E000FF06FF0F9F40374347600E79F643B6077E
:1002F0000ED0C6682746B4465E00B646B74066468E
:10030000BE43B4468F687646B74066463743C760FB
:100310000E79B607B60F022E14D1DE08B6003618D5
:100320000096366A5F07B446FE0E0F27B646B74002
:100330006646BE43B4460F697646B74066463743C5
:10034000009E376206682746B4465E00B646B74050
:100350006646BE430F79B446BF07BF0F7646B74027
:100360006646374307604E68B603B60F58D0304F25
:10037000BE692E43BE61BE699F08F607F60F2D4E7B
:10038000BF00BE190096B6680F27B4469E07360F09
:10039000B646B7406646BE430927FF06B446B84294
:1003A00002D1002715E03BE0234FB84201D10127DD
:1003B0000FE0224FB84201D102270AE0204FB84295
:1003C00001D1032705E01F4FB84201D1042700E007
:1003D00005277646B74066463743009EB7601A4EFB
:1003E000B6684F689643FF0200D51643164FBE60AD
:1003F000FE684F689643BF0200D51643124FFE6059
:100400007E684F689643BF0300D516430E4F7E604B
:100410003E684F689643FF0300D516430A4A1660AC
:100420005B1C0A681646DE4000D03AE7F8BD0000C3
:10043000001002400000014000040048000800488D
:10044000000C00480010004800040140014880688A
:100450007047000004000020024881680278891873
:10046000816070470400002010B506480168102222
:1004700011430160032000F007F800F027F8002086
:1004800010BD00000020024070B504460D4D7D20D7
:100490002978C000FFF72EFE01460B480068FFF7E1
:1004A00029FE00F095FB002809D1042C07D2002278
:1004B0002146401E00F02AF800206C6070BD01202B
:1004C00070BD0000040000201000002008B508489E
:1004D0008169012211438161816911400091C269E2
:1004E00001040A43C261C0690840009008BD0000D1
:1004F00000100240002805DBC106C90E012088401B
:10050000014908607047000000E100E010B501F00B
:10051000C1F910BDF8B504460068434DC00352D57B
:10052000E8690026C00007D4E96928040143E961AD
:10053000E9690140012600913C480168C90510D4D1
:100540000168821511430160FFF780FF074604E050
:10055000FFF77CFFC01B642824D834480068C0051E
:10056000F6D5286A03273F02384020D06168394019
:1005700081421CD0286A2A6AB843012109040A432F
:100580002A622A6A8A432A622862C0070FD0FFF7CC
:100590005DFF009008E0FFF759FF0099411A2448D9
:1005A000814201D90320F8BD286A8007F3D5286A63
:1005B0006168B84308432862002E04D0E86901212D
:1005C00009078843E8612078C00705D0286BA16837
:1005D00080088000084328632078800706D5286BB0
:1005E000032109048843E1680843286320788006D2
:1005F00005D5286B102188432169084328632068AA
:10060000800305D5286B80218843A16908432863AE
:100610002088400505D5286B40218843616908433F
:1006200028630020F8BD0000001002400070004068
:1006300088130000F8B50F4606005ED03C4D2868D0
:10064000C007C00FB84209D22868400840003843AC
:1006500028602868C007C00FB8424ED13068354CBA
:1006600081070CD5400704D56068072109020843BB
:1006700060606068F0218843B1680843606030784A
:10068000C0072BD07068012810D0022810D0032892
:1006900011D02168890700292FDA6168890889004B
:1006A00001436160FFF7D2FE009010E0216803E093
:1006B00021688901EFE7616B8903ECE7FFF7C6FE6C
:1006C0000099411A1C48814201D90320F8BD606895
:1006D0000C210840716889008842EFD12868C00762
:1006E000C00FB8420BD92868400840003843286042
:1006F0002868C007C00FB84201D00120F8BD30788B
:10070000400706D56068072109028843F16808435D
:10071000606000F027F86168084A0906090F515C1B
:10072000C840074908600320FFF7AEFE0020F8BD6F
:1007300000200240001002408813000078190008D1
:10074000100000200448054900684968044A49052A
:10075000490F515CC8407047100000200010024053
:100760008819000870B5154A51680C200B460340E3
:100770001348042B05D0134D082B03D00C2B00D1AC
:10078000284670BD8B02104C1B0FE45CD26A0E4BE6
:100790001207120F1033C9039A5C890F022901D086
:1007A000032901D0002301E0002328460021FFF7A0
:1007B000B7FC214601F056F870BD00000010024061
:1007C00000127A00006CDC0258190008FEB5040023
:1007D00070D02078F94EFA4DC00748D068680007FD
:1007E000800F01281FD068680007800F022804D1FD
:1007F0006868C003800F022815D06168012919D0EC
:1008000001208004002901D0052917D02968B143AF
:100810002960296881432960606800281BD0FFF7A0
:1008200015FE074613E02868800320D5606800287D
:10083000CED01CE0286830432860EDE729680143EA
:100840002960F7E7FFF702FEC01B642870D828680C
:100850008003F7D50BE0FFF7F9FD074604E0FFF74B
:10086000F5FDC01B6428F1D828688003F7D42078F0
:1008700080073FD568680007800F14D068680007BC
:10088000800F022804D16868C003800F01280AD0B5
:10089000E068002828681ED0012108432860FFF77F
:1008A000D5FD07460CE0286880070CD5E0680128D4
:1008B00000D108E080E1FFF7C9FDC01B0228C5D8C0
:1008C00028688007F7D52868F82188432169C9007E
:1008D000084328600EE0400840002860FFF7B6FD9E
:1008E000074604E0FFF7B2FDC01B0228AED8286817
:1008F0008007F7D42078000723D5E0690028686ACC
:100900000FD0012108436862FFF7A0FD074604E00D
:10091000FFF79CFDC01B022898D8686A8007F7D5AE
:100920000FE0400840006862FFF790FD074605E0D1
:10093000C3E0FFF78BFDC01B022887D8686A8007D9
:10094000F7D4207804274007002861DA00200190BE
:10095000E869C00008D4E969B8060143E961E969BA
:10096000014001200091019096480168C90511D409
:100970000168821511430160FFF768FD009005E0F2
:10098000FFF764FD0099401A642898D88D480068E4
:10099000C005F5D5A06801280AD0002801D0052897
:1009A00011D0286A400840002862286AB84302E053
:1009B000286A012108432862A068002812D0FFF7A6
:1009C00045FD00900AE0286A38432862F0E7FFF707
:1009D0003DFD0099411A7C4881426ED8286A800703
:1009E000F5D50DE0FFF732FD009006E0FFF72EFD94
:1009F0000099411A744881425FD8286A8007F5D46B
:100A00000198002804D0E969012000078143E961C9
:100A10002078C00635D5606901280CD0401D686B70
:100A200024D038436863686B400840006863FFF770
:100A30000DFD074622E0686B38436863686B01214F
:100A400008436863FFF702FD074604E0FFF7FEFC7A
:100A5000C01B022831D8686B8007F7D5686BF82176
:100A60008843A169C900084368630AE0B843686322
:100A7000F4E7FFF7EBFCC01B02281ED8686B800769
:100A8000F7D42078800637D568680007800F0328E0
:100A900014D068680007800F022804D16868C0037A
:100AA000800F03280AD0206A0028686B16D03043D4
:100AB0006863FFF7CBFC06460CE062E0686B8003DE
:100AC0001AD5206A012877D116E0FFF7BFFC801BFA
:100AD000022856D8686B8003F7D50DE0B0436863F1
:100AE000FFF7B4FC064604E0FFF7B0FC801B0228C9
:100AF00047D8686B8003F7D4606A002866D06968BD
:100B00000907890F022942D00126360602282868E3
:100B100005D0B0432860FFF799FC044633E0B043AA
:100B20002860FFF793FC074604E0FFF78FFCC01B2B
:100B3000022826D828688001F7D4E86A216B0009CA
:100B400000010843E862A16AE06A084369687B2201
:100B5000D203914308436860286830432860FFF758
:100B600075FC044604E0FFF771FC001B022808D85E
:100B700028688001F7D529E0FFF768FC001B0228F0
:100B800001D90320FEBD28688001F5D41EE00128AC
:100B9000F8D06868E96A0322D203A36A02409A4245
:100BA0000AD10907226B090F914205D10F2189044F
:100BB0000840E16A884209D00120FEBD0000010022
:100BC0000010024000700040881300000020F4E78D
:100BD000094910B5401E884201D9012010BD074CBB
:100BE00060610321081F00F055FE0020A06107206E
:100BF0002061002010BD0000FFFFFF0000E000E0CA
:100C00007047704770470000F8B502680446D06925
:100C100011689368A44D06462E4025468035002E67
:100C200071D0A24FDE07F60F0F4037437ED0C707C3
:100C300006D0CF0504D5012717626A683A436A6077
:100C4000820708D5DA0706D0276802223A626A6866
:100C500004273A436A60420708D5DA0706D02368BA
:100C600004221A626A6802231A436A60020709D5DD
:100C700020220A40324305D0236808221A626B689A
:100C800013436B60020509D54A0107D50122236889
:100C9000D2021A626A6820231A436A606A68002ACC
:100CA00039D0800606D5880604D5A16E002901D06A
:100CB00020468847686821688968490602D4282147
:100CC00008422DD0204600F067FB21688868400666
:100CD00022D5EFF31080012282F310888A68402326
:100CE0009A438A6080F31088606F002814D070499E
:100CF0004163606FFFF7ACFA00280CD0606F416B66
:100D000008E000E012E0860610D58E060ED5A16E32
:100D1000AEE020468847F8BD2046FFF773FFF8BDD8
:100D20002046FFF76FFF00206860F8BD266E012E99
:100D30007ED1C6067CD5CE067AD5102313622268F2
:100D40009068264640064036002848DA616F0868F9
:100D500040680004000CE8D0378B8742E5D97083E7
:100D60008869202834D0EFF31080012181F31088A6
:100D700011681F01B943116080F31088EFF31080F0
:100D8000012181F3108821688A68520852008A6024
:100D900080F31088EFF31080012181F3108821681F
:100DA0008A684027BA438A6080F310882020286030
:100DB00000202066EFF31080012181F31088216864
:100DC0000A689A430A6080F31088606FFFF720FA80
:100DD00002206066308B718B401A81B234E0308B18
:100DE000718B401A81B2708B00289ED000299CD054
:100DF000EFF31080012686F310881668FF2721374D
:100E0000BE43166080F31088EFF31080012282F356
:100E100010882268966876087600966080F31088BD
:100E20002020286000202066A066EFF3108000E0FC
:100E30000EE0012282F31088226815689D43156038
:100E400080F31088022060662046FFF7D9FEF8BDC7
:100E5000C50208D55B0206D50120000510622046B8
:100E6000FFF7CFFEF8BD030606D50B0604D5E16EED
:100E7000002900D04DE7F8BD4006FCD54806FAD55C
:100E80002046EFF31081012383F310881468402378
:100E90009C43146081F310882021C1670021C16642
:100EA00000F036F9F8BD00000F0800002001000432
:100EB0008513000810B5040003D0E06F002802D0AD
:100EC00007E0012010BD002178200155204600F0E8
:100ED00027F82420E067206801684908490001607C
:100EE000606A002802D0204600F084F9204600F015
:100EF00051FB0128E6D0206841680922D2029143C3
:100F00004160206881682A229143816020680168DD
:100F1000012211430160204600F0D2F910BD00000B
:100F200010B586B0044614216846FFF741F9174909
:100F30002068884227D116488269012189030A4323
:100F4000826182690A4005924269C9000A4342618E
:100F50004069084005900320400200900220019063
:100F6000002002900320039001200490092069468C
:100F7000C006FFF791F9002211461B20FFF7C6FAC1
:100F80001B20FFF7B7FA06B010BD00000038014083
:100F90000010024070B580231B58202B01D0022086
:100FA00070BD00290BD0002A09D0012483682403D6
:100FB000A34206D10369002B03D1CB0701D0012046
:100FC00070BD00230366046863681B020BD5EFF352
:100FD0001083012585F3108825680126B606354360
:100FE000256083F3108800F085FB70BD10B50068A4
:100FF0001349884222D113484178002919D1124A55
:1010000081780378535414780023012C01D00029EF
:1010100002D0491C817000E08370547881788C4242
:1010200007D151182039C97FFE2901D10121417012
:101030008370012203490548FFF7ACFF10BD000093
:10104000003801400000002014000020140200209D
:10105000FFB50446C06F83B017460D46202802D066
:10106000022007B0F0BD002D0BD0002F09D00120C9
:10107000A1680003814206D12069002803D1E80756
:1010800001D00120EDE70021842001512120E067FB
:10109000FFF7DCF92646403601903782778201203F
:1010A000A1680003814202D12069002802D02F46A6
:1010B000002511E000270FE000228021204600F0EB
:1010C0007DFB002815D1002F17D0216838780885BE
:1010D0007F1C708A401E7082708A019B00280698CF
:1010E0000090E9D100224021204600F067FB002853
:1010F0000AD02020E0670320B3E728882168C005D4
:10110000C00D0885AD1CE4E72020E0670020A8E7BB
:101110007047FEE708B508484269012189050A437E
:10112000426142690A400092426949110A434261A0
:1011300040690840009008BD0010024010B50C48FE
:101140000A490160E1214902416000218160C160DA
:1011500001618161C1610C22016242614162FFF75C
:10116000A9FE002801D0FFF751F810BD003801405A
:1011700014020020FEE77047704710B5FFF76CF9C6
:1011800010BD70B598B034216846FFF711F80025FE
:101190000D950E950F951C2111A81095FFF708F8D5
:1011A0000124009420040A900194000102260B906F
:1011B00009960C956846FFF709FB002801D072B626
:1011C000FEE707200D900F9501210E9610950DA8B2
:1011D000FFF730FA002801D072B6FEE711A8139588
:1011E0001194FFF797F9002801D072B6FEE718B006
:1011F00070BD704710B5818C090707D501684A6832
:101200000123DB039A43436B1A434A60818CC9076D
:1012100007D001684A6801235B049A43836A1A4332
:101220004A60818C890707D501684A6801231B043D
:101230009A43C36A1A434A60818C490707D50168FB
:101240004A6801239B049A43036B1A434A60818CCA
:10125000C90607D50268916801231B039943836B74
:1012600019439160818C890607D501688A6801233A
:101270005B039A43C36B1A438A60818C490612D57B
:1012800003685A6801210905046C8A4322435A60A5
:10129000026C8A4207D10268516803235B059943B7
:1012A000436C19435160818C090607D501684A686F
:1012B0000123DB04806C9A4302434A6010BD0000A6
:1012C000FEB507460025803704467D60FFF7BEF86F
:1012D000019020680068264600076036002819DA69
:1012E000274800900121002249052046019B00F07B
:1012F00065FA00280ED0EFF31080012181F31088E9
:1013000021680A6880239A430A6080F310882020AD
:10131000E06729E020680068400728D51848009059
:101320000121002289052046019B00F047FA002890
:101330001DD0EFF31080012181F3108821680A6825
:10134000FF2321339A430A6080F31088EFF3108063
:10135000012181F3108821688A68520852008A604E
:1013600080F310882020386035760320FEBD2020D1
:10137000E06738602566656635760020FEBD0000B2
:10138000FFFFFF0110B5406A0022014640314A8349
:101390004A82FFF737FC10BD10B5EFF31081012230
:1013A00082F3108802681368FF242134A34313607A
:1013B00081F31088EFF31081012282F31088026814
:1013C00093685B085B00936081F31088016E0129CC
:1013D0000BD1EFF31081012282F3108802681368A9
:1013E0001024A343136081F31088202280210A5027
:1013F00000210166816610BD70B50146403103468B
:1014000080338C8B1D680268222D04D090690821DE
:101410000843906170BD928C456D22402A80426DD8
:10142000921C42654A8B521E4A834A8B002AF1D194
:10143000EFF31082012484F3108804682568FF26E6
:101440002136B543256082F31088EFF31082012422
:1014500084F310880468A5686D086D00A56082F3A8
:10146000108820221A60002383664366046862683D
:1014700012020BD5EFF31082012585F31088256841
:101480000126B606B543256082F31088026E012A54
:1014900002D0FFF7ABFD70BD0366EFF310820123AE
:1014A00083F310880468256810239D43256082F328
:1014B00010880268D469E443E40600D41362098BFF
:1014C000FFF79EFB70BD70B5014640310346803387
:1014D0008C8B1D680268222D04D090690821084376
:1014E000906170BD928C2240446D2270426D521CFE
:1014F00042654A8B521E4A834A8B002AF1D1EFF390
:101500001082012484F3108804682568FF262136A0
:10151000B543256082F31088EFF31082012484F331
:1015200010880468A5686D086D00A56082F31088B6
:1015300020221A60002383664366046862681202F0
:101540000BD5EFF31082012585F31088256801265D
:10155000B606B543256082F31088026E012A02D0D8
:10156000FFF744FD70BD0366EFF31082012383F3A0
:1015700010880468256810239D43256082F3108835
:101580000268D469E443E40600D41362098BFFF7D0
:1015900037FB70BD70B5044680682169E269084375
:1015A000616900251143226808431168494B1940BD
:1015B0000143116020684168032212039143E268ED
:1015C00011434160A169206A2268084391680B2396
:1015D0001B029943014391603F4A20683F49904272
:1015E0000AD1086B8007800F22D0012816D002286C
:1015F00016D003281ED10FE0394A904212D1096B50
:1016000003200004014016D001200004091A05D06F
:10161000091A05D081420DD102210CE004210AE013
:10162000082108E02F49884202D02F49884201D181
:10163000002100E010210120E369C0032B4A2C4E59
:10164000834222D1002906D0022907D0042907D0DD
:10165000082935D108E0FFF775F803E0104603E0EC
:10166000FFF780F8002830D0616840004A088018F1
:10167000FEF740FD01461039B14221D81C49491CF2
:1016800001400007400F08431DE0002906D0022951
:1016900007D0042907D0082912D108E0FFF752F833
:1016A00003E0104603E0FFF75DF800280DD0616805
:1016B0004A081018FEF71EFD01461039B14201D943
:1016C000012502E080B22168C8600020A066E066C3
:1016D000284670BDF369FFEF00380140001002405A
:1016E0000044004000480040004C004000127A00D6
:1016F000EFFF000070B54165014640310A834A831F
:1017000000238366012284681203FF25944204D1DA
:101710000469002C13D1264C0AE07F26002C09D046
:1017200001252D07AC420CD10469002C05D03F24C3
:101730008C8307E00469002C01D08E8302E08D8346
:1017400000E08B83014680314B6022230B60EFF376
:101750001081012383F3108803689C6801252C43C2
:101760009C6081F310888168914202D1016900294F
:101770000ED010498166016900290BD0EFF310816A
:10178000012282F3108800680268FF23213309E0F8
:1017900009498166EFF31081012282F31088006805
:1017A000026820231A43026081F31088002070BD74
:1017B000FF010000C7140008F9130008FFB5064632
:1017C0008036054681B00F460446603534E00A98FD
:1017D000401C31D0FEF73AFE0499411A0A98814222
:1017E00018D8002816D020680168490724D5802F12
:1017F00022D0402F20D0C169C94309070CD4082743
:1018000007622046FFF7C8FD776000202876012098
:1018100005B0F0BD0320FBE7C069C04300050BD451
:1018200001202168C00208622046FFF7B5FD202094
:10183000706000202876EDE72068C169384688434B
:1018400005D0002103988142C1D00020E0E70121AA
:10185000F8E7000010B50248FFF7D6F910BD000008
:1018600014020020F8B5040C8BB2264682B25E4307
:101870000D0C1046370C584336048019002179416D
:1018800016466E43370C36048019794126466E435E
:101890008919F8BD8307FF22DB0E9A408907090EDC
:1018A0009940002808DB830809489B001B1818682A
:1018B00090430843186070470007000F08388308FA
:1018C00004489B001B18D86990430843D8617047AF
:1018D00000E400E000ED00E002E008C8121F08C1CB
:1018E000002AFAD170477047002001E001C1121FA1
:1018F000002AFBD170470000FEF7B6FDFFF741FC60
:10190000FFF708FCFFF71AFC01220F490F48FFF709
:1019100041FB00260C4D0E4C062768780128FCD1AF
:10192000207067701120A0700A49E670E9200871E4
:10193000FE2060717D233A46DB0005490348FFF72E
:1019400087FB6E70E9E70000000000201402002011
:1019500014010020140000200203040506070809F2
:101960000A0B0C0D0E0F10100102030405060708E8
:10197000090A0B0C0D0E0F10000000000000000003
:101980000102030406070809000000000102030425
:10199000B01900080000002014000000D81800084A
:1019A000C4190008140000208C060000E818000884
:1019B0000000000001000000040000000000000022
:0419C00000127A0097
:04000005080000C12E
:00000001FF
