:020000040800F2
:1000000030050020D500000819150008A1130008CC
:1000100000000000000000000000000000000000E0
:10002000000000000000000000000000351F000874
:1000300000000000000000006D1A0008D520000834
:10004000E7000008E7000008E7000008E7000008F4
:10005000E7000008E7000008E7000008E7000008E4
:10006000E7000008E7000008E7000008E7000008D4
:10007000E7000008E7000008E7000008E7000008C4
:10008000E7000008E7000008E7000008E7000008B4
:10009000E7000008E7000008E7000008E7000008A4
:1000A000E7000008E7000008E7000008E700000894
:1000B000E7000008E7000008E7000008E700000884
:1000C0000348854600F08EF800480047A92A00083A
:1000D000300500200448804704480047FEE7FEE75B
:1000E000FEE7FEE7FEE7FEE751210008C100000839
:1000F00030B50B46014600202022012409E00D46C0
:10010000D5409D4205D31D469540491B2546954047
:1001100040191546521E002DF1DC30BDF0B51FB45C
:100120000646002082B005464024019100901BE065
:10013000019922460F46304600F020F8049A059BAC
:10014000801A994110D310461946224600F039F81A
:10015000361A8F410197224601200021009F00F0AE
:1001600030F838184D4100902046641E0028DFDC2E
:10017000019B00982946324607B0F0BD10B5202AF1
:1001800004DB0846203AD040002110BD0B46D34086
:10019000D0402024A21A91400843194610BDD2B283
:1001A00001E00270401C491EFBD270470022F6E7B6
:1001B00010B513460A4604461946FFF7F0FF2046DD
:1001C00010BD10B5202A04DB0146203A91400020E2
:1001D00010BD914020239C1A0346E34019439040F0
:1001E00010BD0000064C0125064E05E0E36807CC73
:1001F0002B430C3C98471034B442F7D3FFF764FF0D
:100200000C2B00082C2B0008F8B50E4607461546A7
:100210000421052000F029F80021012002F08BF9CB
:1002200080210A2001F022FF002405E0395D092029
:1002300002F081F9641CE4B2B442F7D30321012037
:1002400002F079F9FF24052001F01EFD641E24064A
:10025000240E01D04007F6D5222001F015FD2870AC
:10026000212001F011FD6870F8BD70B50C460546FF
:1002700001F00AFDA0430146284602F05CF970BD7A
:1002800072B6FEE770B5044600F0EEF80546601C55
:1002900002D004480078241800F0E6F8401BA04281
:1002A000FAD370BD20000020F8B5002303240125F7
:1002B000BFE02E469E40B44632407CD00E79B60751
:1002C000B60F012E01D0022E17D186682746B646FA
:1002D0005E00B74000967646BE43B646CF68009EA5
:1002E000B74076463743876046686746BE430F7916
:1002F000FF06FF0F9F40374347600E79F643B6076E
:100300000ED0C6682746B4465E00B646B74066467D
:10031000BE43B4468F687646B74066463743C760EB
:100320000E79B607B60F022E14D1DE08B6003618C5
:100330000096366A5F07B446FE0E0F27B646B740F2
:100340006646BE43B4460F697646B74066463743B5
:10035000009E376206682746B4465E00B646B74040
:100360006646BE430F79B446BF07BF0F7646B74017
:100370006646374307604E68B603B60F58D0304F15
:10038000BE692E43BE61BE699F08F607F60F2D4E6B
:10039000BF00BE190096B6680F27B4469E07360FF9
:1003A000B646B7406646BE430927FF06B446B84284
:1003B00002D1002715E03BE0234FB84201D10127CD
:1003C0000FE0224FB84201D102270AE0204FB84285
:1003D00001D1032705E01F4FB84201D1042700E0F7
:1003E00005277646B74066463743009EB7601A4EEB
:1003F000B6684F689643FF0200D51643164FBE609D
:10040000FE684F689643BF0200D51643124FFE6048
:100410007E684F689643BF0300D516430E4F7E603B
:100420003E684F689643FF0300D516430A4A16609C
:100430005B1C0A681646DE4000D03AE7F8BD0000B3
:10044000001002400000014000040048000800487D
:10045000000C00480010004800040140002A01D0B0
:100460008161704781627047014880687047000071
:100470002000002002488168027889188160704756
:100480002000002010B506480168102211430160C9
:10049000032000F007F800F027F8002010BD00004E
:1004A0000020024070B504460D4D7D202978C00023
:1004B000FFF71EFE01460B480068FFF719FE00F02B
:1004C0008FFE002809D1042C07D200222146401EAD
:1004D00000F01EF800206C6070BD012070BD0000AF
:1004E000200000202C00002008B508488169012266
:1004F00011438161816911400091C26901040A437D
:10050000C261C0690840009008BD000000100240B0
:1005100010B502F04FF810BDF8B504460068434D21
:10052000C00352D5E8690026C00007D4E969280451
:100530000143E961E9690140012600913C480168F5
:10054000C90510D40168821511430160FFF78CFFC3
:10055000074604E0FFF788FFC01B642824D834480E
:100560000068C005F6D5286A03273F02384020D02E
:100570006168394081421CD0286A2A6AB843012147
:1005800009040A432A622A6A8A432A622862C00747
:100590000FD0FFF769FF009008E0FFF765FF0099B3
:1005A000411A2448814201D90320F8BD286A8007F6
:1005B000F3D5286A6168B84308432862002E04D046
:1005C000E869012109078843E8612078C00705D060
:1005D000286BA16880088000084328632078800782
:1005E00006D5286B032109048843E1680843286382
:1005F0002078800605D5286B10218843216908439F
:1006000028632068800305D5286B80218843A16971
:10061000084328632088400505D5286B402188437E
:100620006169084328630020F8BD00000010024003
:100630000070004088130000F8B50F4606005ED039
:100640003C4D2868C007C00FB84209D2286840084E
:100650004000384328602868C007C00FB8424ED118
:100660003068354C81070CD5400704D560680721F8
:100670000902084360606068F0218843B16808435C
:1006800060603078C0072BD07068012810D0022835
:1006900010D0032811D02168890700292FDA61685A
:1006A0008908890001436160FFF7DEFE009010E0D9
:1006B000216803E021688901EFE7616B8903ECE7BA
:1006C000FFF7D2FE0099411A1C48814201D903204C
:1006D000F8BD60680C210840716889008842EFD13C
:1006E0002868C007C00FB8420BD9286840084000EE
:1006F000384328602868C007C00FB84201D00120E5
:10070000F8BD3078400706D56068072109028843A4
:10071000F1680843606000F027F86168084A09063C
:10072000090F515CC840074908600320FFF7BAFE73
:100730000020F8BD00200240001002408813000095
:10074000F42A00082C000020044805490068496884
:10075000044A4905490F515CC84070472C000020ED
:1007600000100240042B000870B5154A51680C2097
:100770000B4603401348042B05D0134D082B03D020
:100780000C2B00D1284670BD8B02104C1B0FE45C73
:10079000D26A0E4B1207120F1033C9039A5C890FED
:1007A000022901D0032901D0002301E000232846BB
:1007B0000021FFF7B3FC214601F0E4FE70BD00000C
:1007C0000010024000127A00006CDC02D42A0008FB
:1007D000FEB5040070D02078F94EFA4DC00748D01D
:1007E00068680007800F01281FD068680007800F25
:1007F000022804D16868C003800F022815D0616800
:10080000012919D001208004002901D0052917D021
:100810002968B143296029688143296060680028FC
:100820001BD0FFF721FE074613E02868800320D580
:1008300060680028CED01CE0286830432860EDE7CF
:10084000296801432960F7E7FFF70EFEC01B642803
:1008500070D828688003F7D50BE0FFF705FE074640
:1008600004E0FFF701FEC01B6428F1D8286880036C
:10087000F7D4207880073FD568680007800F14D030
:1008800068680007800F022804D16868C003800FE1
:1008900001280AD0E068002828681ED001210843FA
:1008A0002860FFF7E1FD07460CE0286880070CD5BB
:1008B000E068012800D108E080E1FFF7D5FDC01B0A
:1008C0000228C5D828688007F7D52868F82188430A
:1008D0002169C900084328600EE0400840002860F4
:1008E000FFF7C2FD074604E0FFF7BEFDC01B02286C
:1008F000AED828688007F7D42078000723D5E069B0
:100900000028686A0FD0012108436862FFF7ACFD38
:10091000074604E0FFF7A8FDC01B022898D8686AC4
:100920008007F7D50FE0400840006862FFF79CFDA4
:10093000074605E0C3E0FFF797FDC01B022887D8F4
:10094000686A8007F7D4207804274007002861DA16
:1009500000200190E869C00008D4E969B8060143A5
:10096000E961E96901400120009101909648016820
:10097000C90511D40168821511430160FFF774FDA8
:10098000009005E0FFF770FD0099401A642898D8A0
:100990008D480068C005F5D5A06801280AD0002858
:1009A00001D0052811D0286A400840002862286A32
:1009B000B84302E0286A012108432862A0680028A1
:1009C00012D0FFF751FD00900AE0286A38432862F0
:1009D000F0E7FFF749FD0099411A7C4881426ED843
:1009E000286A8007F5D50DE0FFF73EFD009006E090
:1009F000FFF73AFD0099411A744881425FD8286A8E
:100A00008007F5D40198002804D0E9690120000787
:100A10008143E9612078C00635D5606901280CD092
:100A2000401D686B24D038436863686B4008400001
:100A30006863FFF719FD074622E0686B3843686377
:100A4000686B012108436863FFF70EFD074604E069
:100A5000FFF70AFDC01B022831D8686B8007F7D565
:100A6000686BF8218843A169C900084368630AE0FC
:100A7000B8436863F4E7FFF7F7FCC01B02281ED8F1
:100A8000686B8007F7D42078800637D56868000740
:100A9000800F032814D068680007800F022804D153
:100AA0006868C003800F03280AD0206A0028686B9A
:100AB00016D030436863FFF7D7FC06460CE062E0CF
:100AC000686B80031AD5206A012877D116E0FFF7FA
:100AD000CBFC801B022856D8686B8003F7D50DE04D
:100AE000B0436863FFF7C0FC064604E0FFF7BCFCB8
:100AF000801B022847D8686B8003F7D4606A0028FF
:100B000066D069680907890F022942D00126360696
:100B10000228286805D0B0432860FFF7A5FC0446EA
:100B200033E0B0432860FFF79FFC074604E0FFF77F
:100B30009BFCC01B022826D828688001F7D4E86AED
:100B4000216B000900010843E862A16AE06A0843DA
:100B500069687B22D2039143084368602868304368
:100B60002860FFF781FC044604E0FFF77DFC001BD2
:100B7000022808D828688001F7D529E0FFF774FC1F
:100B8000001B022801D90320FEBD28688001F5D48E
:100B90001EE00128F8D06868E96A0322D203A36A3C
:100BA00002409A420AD10907226B090F914205D1EE
:100BB0000F2189040840E16A884209D00120FEBD66
:100BC0000000010000100240007000408813000087
:100BD0000020F4E7F8B504000CD0606A0025002876
:100BE0000AD02561656126464036A562707F0028DF
:100BF00008D00BE00120F8BD6168C81FFD38F2D0B5
:100C0000E561F0E73577204600F05CF80222727764
:100C1000206801684023994301600723E1681B02B3
:100C2000994201D9002001E0012000030F273F0273
:100C3000B94202D0994200D0A562FF236168053312
:100C400019402127A368BF023B4019432369134081
:100C5000227D1943D207D20F11430123A2695B02FF
:100C60001A401143E26938231A401143226A802353
:100C70001A401143A26A9B011A4011432268116075
:100C8000A1690422090C1140626A10231A40114321
:100C9000626B08231A4011430F23E2681B021A40BB
:100CA0001143012212031040014320684160206873
:100CB000C16952109143C1612566012070770020FF
:100CC000F8BD000010B586B0044614216846FFF751
:100CD0006DFA1149206888421CD11048826981143C
:100CE0000A43826182690A400592426949010A43C6
:100CF0004261406908400590E02000900220019088
:100D00000021032003900291049109206946C00646
:100D1000FFF7CAFA06B010BD0030014000100240D3
:100D2000FFB50026054604464035687F81B017466A
:100D3000012801D00226A3E06168C81FFD3802D156
:100D4000A068002824D0287F01282DD001202877F2
:100D5000FFF78AFB00900298002871D0002F6FD017
:100D6000042068770020206602992164AF80EF801C
:100D7000A063A087E087E064206507210120E26886
:100D8000090200038A42226853680FD983430EE0A8
:100D90000420687713460498029A00901146204672
:100DA00000F022F905B0F0BD0220FBE703435360D9
:100DB0000123A068DB034022984208D12068036821
:100DC00093430360206803681702BB4303602068F5
:100DD00003685B0602D4036813430360E06888423B
:100DE0001AD93AE020688168C90709D0007B216CD4
:100DF0000870206C401C2064E888401EE8800BE0EE
:100E0000FFF732FB0099411A0498814202D3401C3B
:100E100002D005E0002803D0E8880028E2D11FE0D6
:100E200003262BE020688168C9070AD0C068216CBE
:100E30000880206C801C2064E888401EE8800CE05C
:100E40001AE0FFF711FB0099411A0498814202D37E
:100E5000401C02D0E4E70028E2D0E8880028E1D175
:100E60002046009A049900F02FFF002801D020208E
:100E70002066206E002801D0012601E0012068775D
:100E80000020287730468DE7FFB5054604464035FB
:100E9000287F002781B01646012809D00120287735
:100EA000FFF7E2FA0090687F012804D0022797E05C
:100EB000022005B0F0BD0298002874D0002E72D038
:100EC00003206877002020660299A163A687E68741
:100ED0002064A880E8802065E0640122A068D20335
:100EE0004021904208D1206802688A43026020684D
:100EF00002680B021A43026020680268520602D49C
:100F000002680A4302600721E068090288426068BB
:100F100028D9002801D0012E1ED1A06B216800889D
:100F2000C86006E020688168890709D5A16B098837
:100F3000C160A06B801CA063E08F401EE0870BE0C7
:100F4000FFF792FA0099411A0498814202D3401C9B
:100F500002D005E0002803D0E08F0028E2D128E08D
:100F600003273BE0002801D0012E1FD1A06B216890
:100F70000078087306E020688168890709D5A16BAD
:100F800009780173A06B401CA063E08F401EE087CE
:100F90000CE0FFF769FA0099411A0498814203D3E3
:100FA000401C03D0DCE717E00028D9D0E08F0028F0
:100FB000E1D12046009A049900F0C2FE002801D039
:100FC00020202066A068002803D12068C1688068BE
:100FD0000090206E002801D0012701E001206877F1
:100FE00000202877384664E7FFB5044683B0012027
:100FF000254640350090287F00271E4601280FD047
:1010000001202877FFF730FA0190687F6168012896
:101010000DD0CA1FFD3A08D1A168002905D102E010
:10102000022007B0F0BD042801D00227D4E00498C4
:1010300000286FD005980028FBD0002EF9D0687FDB
:10104000042801D0052068770020206605992164D6
:10105000EE80AE800499A163E687A687E0642065F0
:1010600007210120E268090200038A4222685368CE
:1010700001D9834300E003435360206802685206AD
:1010800003D4026840231A430260E0688842606823
:1010900048D9002801D0012E3DD1A06B01882068DD
:1010A000C160A06B801CA063E08F401EE08732E02F
:1010B00020688168890710D5E18F00290DD000993B
:1010C00001290AD1A16B0988C160A06B801CA063B3
:1010D000E08F401EE0870020009020688168C907EB
:1010E0000DD0E98800290AD0C068216C0880206CE6
:1010F000801C2064E888401EE88001200090FFF7F3
:10110000B3F90199401A0C99884204D3481C02D0C3
:1011100003275FE05CE0E08F0028C9D1E888002861
:10112000C6D148E0002801D0012E3ED1A06B216835
:1011300000780873A06B401CA063E08F401EE0871E
:1011400033E020688168890710D5E18F00290DD030
:10115000009901290AD1A16B09780173A06B401C89
:10116000A063E08F401EE087002000902068816827
:10117000C9070DD0E98800290AD0007B216C0870CE
:10118000206C401C2064E888401EE880012000900C
:10119000FFF76AF901460198091A0C98814202D3B7
:1011A000401C02D0B4E70028B2D0E08F0028C8D19C
:1011B000E8880028C5D12046019A0C9900F0C0FDAE
:1011C000002802D0012720202066206E002801D0B0
:1011D000012701E00120687700202877384620E7C2
:1011E000094910B5401E884201D9012010BD074CA5
:1011F00060610321081F01F0DDF90020A0610720D4
:101200002061002010BD0000FFFFFF0000E000E0B3
:1012100010B5040003D0E06F002802D007E00120E1
:1012200010BD002178200155204600F027F8242029
:10123000E06720680168490849000160606A002889
:1012400002D0204600F085FF204601F079F8012801
:10125000E6D0206841680922D202914341602068AB
:1012600081682A229143816020680168012211432C
:101270000160204600F0D2FF10BD000010B586B01E
:10128000044614216846FEF791FF134920688842FE
:101290001FD112488269012189030A438261826950
:1012A0000A4005924269C9000A4342614069084008
:1012B000059003204002009002200190002002903F
:1012C000032003900120049009206946C006FEF720
:1012D000EBFF06B010BD00000038014000100240D6
:1012E000FFB50446C06F83B017460D46202802D0D4
:1012F000022007B0F0BD002D0BD0002F09D0012037
:10130000A1680003814206D12069002803D1E807C3
:1013100001D00120EDE70021842001512120E06768
:10132000FFF7A2F8264640360190378277820120E7
:10133000A1680003814202D12069002802D02F4613
:10134000002511E000270FE000228021204601F057
:10135000A7F8002815D1002F17D021683878088504
:101360007F1C708A401E7082708A019B002806983C
:101370000090E9D100224021204601F091F8002898
:101380000AD02020E0670320B3E728882168C00541
:10139000C00D0885AD1CE4E72020E0670020A8E729
:1013A000FEE70000F0B587B014216846FEF7FEFEA8
:1013B000304842690121C9040A43426142690A4036
:1013C00005924269C9000A43426142690A40059296
:1013D000426949110A43426142690A4005924269E1
:1013E00049000A4342614069234E084005900122AA
:1013F00049113046FFF732F80121002289033046B7
:10140000FFF72CF80927FF0601221C493846FFF791
:1014100025F801221A491B48FFF720F800221A4933
:101420001848FFF71BF8FF21002201313846FFF76B
:1014300015F803204003002401250090029469461A
:10144000019503943046FEF72FFF104803260090C5
:1014500069460396019502943846FEF725FF0C482D
:10146000009069460396019502940648FEF71CFF1A
:1014700007B0F0BD001002400008004810800000D6
:1014800050A9000000040048A8520000108100008C
:10149000F8FB000010B511480F490160FF2105312C
:1014A000416000210722816012020161C2600122B5
:1014B000416152028261016218224162C26181620D
:1014C0000722C262016308214163FFF783FB002802
:1014D00001D0FEF7D5FE10BD0030014034000020E1
:1014E00010B50C480A490160E12149024160002120
:1014F0008160C16001618161C1610C220162426150
:101500004162FFF785FE002801D0FEF7B9FE10BD4D
:101510000038014098000020FEE710B50321142098
:10152000FEF7A3FE10BD10B5142000F0ADFB800740
:1015300003D10321142000F099FD10BD70B50646BB
:10154000082188B000240846FEF78FFE00210D20F8
:1015500000F0F1FF80210E20FEF787FE9321684600
:1015600001712021417106A801AB009002221946A9
:101570000C2000F077F8050009D011A000F0F2FF70
:1015800080210E2000F072FD284608B070BD0021B9
:1015900001A8425C7254425C491C5440C9B20429FF
:1015A000F7D3405CA04200D002256846C079009085
:1015B000684683794279017907A000F0D3FFDFE71D
:1015C000506364416E7469636F6C6C204661696C32
:1015D00065640D0A00000000506364416E74696325
:1015E0006F6C6C20537563636573732C20494320C3
:1015F00043617264205549442069733A203078254C
:101600003032782530327825303278253032780DF6
:101610000A00000030B587B06C462071617100206F
:1016200001A9145C0D18401CC0B2AC700628F8D398
:1016300000201A5C0C18401CC0B222720628F8D395
:1016400006A800900B460C220E2000F00BF80400B8
:1016500004D1082000F018FB000700D40224204623
:1016600007B030BDFFB581B00024019802261746AF
:1016700000940C2804D00E2805D11224102001E07B
:10168000772430200090214680200143022000F082
:1016900052FF80210420FEF7E8FD0021012000F028
:1016A0004AFF80210A2000F0E1FC002505E00298B5
:1016B000415D092000F03FFF6D1CBD42F7D30120C2
:1016C000019900F038FF01980C2803D180210D20EA
:1016D00000F0CCFC7D273F01042000F0D5FA054640
:1016E0007F1E04D0E80702D100980542F4D0802183
:1016F0000D20FEF7BAFD002F0FD0062000F0C4FA2F
:101700001B21084208D100262540E80700D0012609
:1017100001980C280CD000E0022680210C2000F05B
:10172000A5FC0021012000F006FF304605B0F0BD09
:101730000A2000F0A9FA04460C2000F0A5FA4007A0
:10174000400F03D0E1000839091800E0E1000A98D1
:10175000002C016004D0122C04D91224002503E0CF
:101760000124FBE7002506E0092000F08DFA014680
:10177000049841556D1CA542F6D3CEE710B541281B
:1017800027D108210846FEF770FD3D21112000F009
:10179000D2FE8621172000F0CEFE7F21262000F009
:1017A000CAFE1E212D2000F0C6FE00212C2000F0D4
:1017B000C2FE8D212A2000F0BEFE3E212B2000F02B
:1017C000BAFE0220FEF75EFDFFF7ADFE01A000F0BD
:1017D000C9FE10BD0D0A20616E74656E6E61204FEA
:1017E0004E20212121200D0A0000000030B587B0D5
:1017F0000D46302269460A71487101AC022120462B
:10180000A21CFEF701FD06A801AB009004221946B8
:101810000C20FFF727FF002802D10699902902D05B
:10182000022007B030BD0023E15CE9545B1CDBB251
:10183000102BF9D3F5E7000030B50D46044608211A
:1018400087B00846FEF711FD07210D2000F073FE5A
:101850000321142000F00AFC6846047106A801ABBD
:101860000090012219460C20FFF7FCFE040002D173
:101870000698102806D0022409A000F073FE204626
:1018800007B030BD684600792870684640796870B6
:1018900068464279017907A000F064FEEFE7000096
:1018A00050636452657175657374204661696C6537
:1018B000640D0A005063645265717565737420533A
:1018C000756363657373204943205479706520699B
:1018D000733A307825303278203078253032780DE0
:1018E0000A00000010B50924E40601220821204660
:1018F000FEF7B4FD0120FEF7C5FC002208212046BA
:10190000FEF7ACFD0120FEF7BDFC012208212046B8
:10191000FEF7A4FD0120FEF7B5FC0F21012000F029
:101920000AFE012000F0B0F9C006FAD40120FEF74B
:10193000A9FC3D21112000F0FEFD1E212D2000F00C
:10194000FAFD00212C2000F0F6FD8D212A2000F068
:10195000F2FD3E212B2000F0EEFD4021152000F08D
:10196000EAFD02A000F0FEFD10BD00000D0A2050AF
:101970006364526573657428766F69642920212138
:1019800021200D0A0000000010B588B0932269469E
:101990000A7170224A7100228A72114601AA435CC0
:1019A0005418A3706C46A37A445C491C63406C468F
:1019B000C9B2A3720429F2D3072101A8D21DFEF7F0
:1019C00023FC08210846FEF750FC06A801AB009056
:1019D000092219460C20FFF745FE002802D106997E
:1019E000182900D0022008B010BD70B588B00D468F
:1019F000A02269460A71487101AC02212046A21C4E
:101A0000FEF702FC06AE01AB042219460C2000963C
:101A1000FFF728FE002826D10698042823D168461F
:101A200000790007000F0A281DD10020295C2154ED
:101A3000401CC0B21028F9D305AA102101A8FEF756
:101A4000E3FB01AB122219460C200096FFF70AFEB9
:101A5000002808D10699042905D1694609790907A2
:101A6000090F0A2900D0022008B070BD704700009D
:101A700070B50025FFF736FF3E495220FFF7DCFE28
:101A8000002876D13B48801CFFF758FD002870D114
:101A90003848801C00F0F6FA3648801CFFF774FFC7
:101AA000002866D1334B60209B1C1A1DD61F31784D
:101AB000FFF7B0FD002801D02FA058E035A000F0BE
:101AC00051FD3B493078FFF791FE002840D139A005
:101AD00000F048FD364C3CA0615D00F043FD6D1CFC
:101AE000EDB2102DF7D33AA000F03CFD214930783B
:101AF0000C31FFF77AFF002809D136A000F032FD43
:101B00002B493078FFF772FE002802D020E037A082
:101B10002DE03BA000F026FD0025615D2AA000F02D
:101B200021FD6D1CEDB2102DF7D329A000F01AFD98
:101B3000104902200C31FFF758FF0028E7D125A0FB
:101B400000F010FD1A490220FFF750FE002801D0D6
:101B500030A00CE02AA000F005FD0025615D1AA070
:101B600000F000FD6D1CEDB2102DF7D318A000F0B1
:101B7000F9FC70BD01000020506364417574685326
:101B800074617465284129206661696C65640D0A79
:101B9000000000005063644175746853746174659B
:101BA00028412920737563636573730D0A00000073
:101BB000200100207769727465204265666F726546
:101BC00020446174613A0000253032780000000042
:101BD0000D0A0000506364577269746528292073E8
:101BE0007563636573730D0A0000000050636457EA
:101BF000726974652829206661696C65640D0A0044
:101C000077697274652061667465722044617461DD
:101C10003A000000506364526561642829206661BF
:101C2000696C65640D0A000010B50924E406012200
:101C300008212046FEF712FC012210212046FEF763
:101C40000DFCFFF74FFE4120FFF798FD00F074F9FF
:101C5000012305485B030246590000F0E1F903A0A7
:101C600000F080FC10BD0000000800480D0A205262
:101C7000433532335F496E6974205375636365730E
:101C800073200D0A0000000038B58006440E0925B7
:101C9000ED060022102128468034FEF7DFFB2046A7
:101CA00000F074F87D23DB00012269460548FFF748
:101CB00037F868460478012210212846FEF7CEFB4B
:101CC000204638BD34000020F7B504464068FF26A2
:101CD000053682B01546B0420CD10121A068C90377
:101CE000884202D04911884204D12068016840220C
:101CF000914301600095002280212046039B00F063
:101D0000BDF82027002813D16068B04216D1A06822
:101D1000B902884202D0491188420FD103210095AF
:101D2000002249022046039B00F03CF8002805D021
:101D3000206E38432066032005B0F0BD0020FBE78D
:101D4000F8B50F460B4615460092032104460022C3
:101D5000C90200F027F82026002812D13B460022B5
:101D600080212046009500F089F8002809D1032140
:101D70003B46002249022046009500F013F8002857
:101D800003D0206E304320660320F8BD01B57D23CB
:101D9000DB00012269460248FFF776F808BD000023
:101DA00034000020FFB585B00E4604460020694689
:101DB0000E9D17460871FEF757FB411B0898451A00
:101DC000FEF752FB0390206823210C3002902A4832
:101DD00000684843000D684346E003204002864205
:101DE00006D1002F04D1029801786846017100796C
:101DF0000898401C39D0FEF737FB0399401AA842D7
:101E000005D2002D03D0009800282BD02BE02068AD
:101E10004168E022914341606068C11FFD390CD1E7
:101E20000121A068C903884202D04911884204D127
:101E3000206801684022914301600120A16A4003AB
:101E4000814207D121680A6882430A6021680A68D2
:101E500002430A600120403460770020207703208D
:101E600009B0F0BD0025401E009020688068304019
:101E7000B842B2D10020F3E72C000020FFB581B0BA
:101E80001E4604460A9DFEF7EFFA401B351AFEF780
:101E9000EBFA0746264800684001000D684339E028
:101EA000701C38D0FEF7E0FAC01BA84205D2002D06
:101EB00003D0009800282BD02BE020684168E02256
:101EC000914341606068C11FFD390CD10121A068B8
:101ED000C903884202D04911884204D120680168B0
:101EE0004022914301600120A16A4003814207D151
:101EF00021680A6882430A6021680A6802430A600E
:101F000001204034607700202077032005B0F0BD29
:101F10000025401E0090206881680298884305D003
:101F2000002103988142BBD10020EFE70121F8E7AF
:101F30002C00002070470000F8B52F4C0121002232
:101F400009032046FEF78AFA0122D1022046FEF755
:101F500085FA0125AD03002229462046FEF77EFAC8
:101F6000012251032046FEF779FA0927AE11FF0638
:101F7000002231463846FEF771FA0122D10320468D
:101F8000FEF76CFA002208212046FEF767FA0122CC
:101F9000D1033846FEF762FA002220212046FEF7E0
:101FA0005DFA012210212046FEF758FA0022802116
:101FB0002046FEF753FA012240212046FEF74EFA52
:101FC000002269112046FEF749FA012231462046D7
:101FD000FEF744FA094C002229462046FEF73EFA55
:101FE000012251032046FEF739FAFFF796FA04A0C2
:101FF00000F0B8FAF8BD00000004004800080048EE
:102000000D0A2053656C656374416C6C416E746598
:102010006E6E614F66662021212121200D0A00008D
:10202000F8B51E4617460C460546FFF776FA01221C
:1020300021462846FEF712FA002231463846FEF7BE
:102040000DFAFFF770FA02A000F08CFAF8BD00005C
:102050000D0A2053656C656374416E74656E6E6124
:102060004F6E2021212121200D0A000070B50D4660
:102070000446FFF709FE28430146204600F05BFABC
:1020800070BD00003EB500236946C25C5C001209C9
:102090000A55092A01D9373200E030320A55C25CAC
:1020A00064181207120F6270092A01D9373200E052
:1020B00030325B1CDBB26270042BE6D30020087266
:1020C00001A000F04FFA3EBD49443E3E3E25730D4F
:1020D0000A00000010B5FEF7CDF910BD70B598B03C
:1020E00034216846FEF762F800240D940E940F9494
:1020F0001C2111A81094FEF759F80225102009950B
:1021000004900095C0020A90400101260B900396AE
:102110000C946846FEF75CFB002801D072B6FEE71F
:1021200007200D900F9401210E9510940DA8FEF735
:1021300083FA002801D072B6FEE711A81196139415
:10214000FEF7EAF9002801D072B6FEE718B070BDBC
:10215000704710B5818C090707D501684A680123CB
:10216000DB039A43436B1A434A60818CC90707D04B
:1021700001684A6801235B049A43836A1A434A60F0
:10218000818C890707D501684A6801231B049A439B
:10219000C36A1A434A60818C490707D501684A68B7
:1021A00001239B049A43036B1A434A60818CC9063E
:1021B00007D50268916801231B039943836B194378
:1021C0009160818C890607D501688A6801235B03C9
:1021D0009A43C36B1A438A60818C490612D50368FF
:1021E0005A6801210905046C8A4322435A60026C33
:1021F0008A4207D10268516803235B059943436C07
:1022000019435160818C090607D501684A6801238A
:10221000DB04806C9A4302434A6010BDFEB507465A
:102220000025803704467D60FEF71EF90190206886
:102230000068264600076036002819DA2748009013
:102240000121002249052046019B00F029F90028C0
:102250000ED0EFF31080012181F3108821680A6805
:1022600080239A430A6080F310882020E06729E0E9
:1022700020680068400728D51848009001210022F6
:1022800089052046019B00F00BF900281DD0EFF3D3
:102290001080012181F3108821680A68FF2321330F
:1022A0009A430A6080F31088EFF31080012181F3D4
:1022B000108821688A68520852008A6080F310886A
:1022C0002020386035760320FEBD2020E06738608E
:1022D0002566656635760020FEBD0000FFFFFF0124
:1022E00010B5EFF31081012282F3108802681368A1
:1022F000FF242134A343136081F31088EFF310818E
:10230000012282F31088026893685B085B00936087
:1023100081F31088016E01290BD1EFF310810122A6
:1023200082F31088026813681024A343136081F3BA
:102330001088202280210A5000210166816610BD8C
:1023400070B5044680682169E26908436169002527
:102350001143226808431168494B19400143116039
:1023600020684168032212039143E26811434160EF
:10237000A169206A2268084391680B231B029943D4
:10238000014391603F4A20683F4990420AD1086B5F
:102390008007800F22D0012816D0022816D00328EB
:1023A0001ED10FE0394A904212D1096B032000047C
:1023B000014016D001200004091A05D0091A05D0E1
:1023C00081420DD102210CE004210AE0082108E03D
:1023D0002F49884202D02F49884201D1002100E0D4
:1023E00010210120E369C0032B4A2C4E834222D1E5
:1023F000002906D0022907D0042907D0082935D1A1
:1024000008E0FEF7A1F903E0104603E0FEF7ACF99F
:10241000002830D0616840004A088018FDF768FE47
:1024200001461039B14221D81C49491C014000071E
:10243000400F08431DE0002906D0022907D00429D7
:1024400007D0082912D108E0FEF77EF903E0104614
:1024500003E0FEF789F900280DD061684A081018DA
:10246000FDF746FE01461039B14201D9012502E0CF
:1024700080B22168C8600020A066E066284670BD72
:10248000F369FFEF003801400010024000440040B3
:1024900000480040004C004000127A00EFFF0000AE
:1024A000FFB506468036054681B00F4604466035C6
:1024B00034E00A98401C31D0FDF7D6FF0499411A48
:1024C0000A98814218D8002816D020680168490768
:1024D00024D5802F22D0402F20D0C169C9430907BD
:1024E0000CD4082707622046FFF7FAFE7760002029
:1024F0002876012005B0F0BD0320FBE7C069C0438A
:1025000000050BD401202168C00208622046FFF7B5
:10251000E7FE2020706000202876EDE72068C16982
:102520003846884305D0002103988142C1D000205D
:10253000E0E70121F8E770B5800609250E46440E54
:10254000ED06002210212846FDF788FF2046FFF700
:102550001DFC3046FFF71AFC012210212846FDF72A
:102560007DFF70BD0FB410B503A9044B044A029857
:1025700000F052F810BC08BC04B018478D2A0008BF
:1025800030000020F8B5040C8BB2264682B25E43C0
:102590000D0C1046370C5843360480190021794140
:1025A00016466E43370C36048019794126466E4331
:1025B0008919F8BD8307FF22DB0E9A408907090EAF
:1025C0009940002808DB830809489B001B181868FD
:1025D00090430843186070470007000F08388308CD
:1025E00004489B001B18D86990430843D861704782
:1025F00000E400E000ED00E002E008C8121F08C19E
:10260000002AFAD170477047002001E001C1121F73
:10261000002AFBD170470000FFB591B00F46054678
:10262000002606E025280AD0149A139990476D1CBD
:10263000761C28780028F5D1304615B0F0BD00246E
:1026400000940121F34A029400E004436D1C2B78AE
:102650000846203B98401042F7D128782A280ED00F
:10266000022128780246303A092A15D8009A0A230E
:102670005A43303A80180C436D1C0090F1E701CFAB
:102680000090002805DA01204003044300984042EE
:102690000090022004436D1C28782E2815D10420B8
:1026A000044368786D1C2A280AD101CF6D1C029062
:1026B0000BE002990A225143303940186D1C0290F8
:1026C0002878014630390929F3D928786C2810D0A8
:1026D00006DC4C281AD068280ED06A2817D104E0EE
:1026E000742813D07A2812D110E001204005044349
:1026F0000CE00121090501E0032109050C4369787B
:10270000814203D10120000524186D1C6D1C28781E
:1027100003906E281ED00CDC632831D004DC002826
:102720008AD0582811D1B2E064287BD069280CD116
:1027300078E073282DD004DC6F2870D0702804D185
:10274000A7E075286CD078286BD0149A139990471D
:10275000761C62E06002400F022807D003280AD0EE
:10276000042838680AD006603F1D56E03868F11723
:1027700006604160F8E738680680F5E70670F3E721
:102780003878694608740020487404A80390012032
:1027900003E0386803900020C0433F1D61070FD558
:1027A000002101E00199491C029A0191914213DA3A
:1027B0008142F7DB019A0399895C0029F2D10BE091
:1027C000002101E00199491C01918142FADB019A43
:1027D0000399895C0029F5D101990098139A401A50
:1027E00000902146149B00F03BF90199801946188E
:1027F00007E0039803990078491C0391149A1399F0
:1028000090470198401E0190401CF2D12146149B34
:10281000139A009800F014F986196D1C09E741E03D
:1028200033E034E00A200021049005916002410F5A
:10283000022905D001CFC2179446032905D007E02D
:10284000FF1DFF08FF0003CF06E000B2C217944649
:10285000042902D140B2C1178C460022614694453A
:1028600006DA0A460021404291418C462D2102E0C1
:10287000210504D52B216A461176012103E0E107E9
:1028800001D02021F7E7019154E00A200BE010204D
:1028900009E0102004900021042004430820059141
:1028A000029003E008200021059104906002410F8E
:1028B000022905D001CF00229446032906D006E064
:1028C000FF1DFF08FF0003CF8C4603E080B2042900
:1028D00000D1C0B20021019121072BD503997029A5
:1028E00006D0049A1021059B4A401A4305D00EE0F9
:1028F00040216A461176012108E06146014306D075
:1029000030216A4611760399517602210191049A89
:102910000821059B4A401A430CD16146014301D16D
:10292000610707D530216A4611760121019102998C
:10293000491E02910399582904D037A103910FA988
:102940000F910DE039A1F9E76146059B049AFDF767
:10295000E5FB039B8C469B5C0F9A521E0F921370F3
:1029600061460143F0D10F9807A9081A203003905F
:10297000600704D5012000048443029801E001208F
:1029800002900399884201DD401A00E000204118BE
:102990000290019809180098401A0090E00306D4AC
:1029A0002146149B139A009800F05AF886190020CB
:1029B000049008E006A9085C149A139990470498BB
:1029C000401C761C049001998842F3DBE0030CD58F
:1029D0002146149B139A009800F042F8861904E0EF
:1029E000149A302013999047761C0299481E029041
:1029F0000029F5DC08E00F980F990078491C0F9129
:102A0000149A13999047761C0399481E0390002945
:102A1000F1DCFBE60928010030313233343536373A
:102A2000383961626364656600000000303132331A
:102A300034353637383941424344454600000000BA
:102A4000F8B5044600251E461746880404D405E060
:102A500039462020B0476D1C641EF9D52846F8BDC4
:102A6000FFB50446002581B01E46C80301D53027B6
:102A700000E02027880404D505E038460399B047D4
:102A80006D1C641EF9D5284605B0F0BD13B5044B86
:102A9000012269460348FEF723FC00981CBD000094
:102AA000FFFF000098000020FDF7ECFCFFF716FB8D
:102AB000FEF778FCFEF7EEFCFEF712FDFFF7B4F828
:102AC000034CFEF7D5FF2046FDF7DCFBF9E70000DD
:102AD000B80B000002030405060708090A0B0C0DD9
:102AE0000E0F10100102030405060708090A0B0C5B
:102AF0000D0E0F1000000000000000000102030492
:102B00000607080900000000010203042C2B00083E
:102B10000000002034000000F8250008602B0008A9
:102B200034000020FC04000008260008010000001A
:102B3000000000FFFFFFFFFFFF0001020304050686
:102B40000708090A0B0C0D0E0F0000000100000021
:102B5000040000000000000000127A0000000000E5
:04000005080000C12E
:00000001FF
